:020000040000FA
:100000000C9462000C948A000C948A000C948A0070
:100010000C948A000C948A000C948A000C948A0038
:100020000C948A000C948A000C948A000C94570655
:100030000C948A000C948A000C948A000C948A0018
:100040000C940D060C948A000C94DB050C94B505F9
:100050000C948A000C948A000C948A000C948A00F8
:100060000C948A000C948A000000000023002600F3
:10007000290000000008000201000003040700003E
:1000800000000000000000000000250028002B00F8
:1000900000000000240027002A00040404040404D3
:1000A0000404020202020202030303030303010227
:1000B00004081020408001020408102001020408F6
:1000C0001020130711241FBECFEFD8E0DEBFCDBF35
:1000D00011E0A0E0B1E0E4E3F4E102C005900D928C
:1000E000AE37B107D9F722E0AEE7B1E001C01D920B
:1000F000AE36B207E1F710E0C2E6D0E004C02197C7
:10010000FE010E94120AC136D107C9F70E94B70743
:100110000C94180A0C94000090E0FC01E255FF4F8B
:10012000249186569F4FFC018491882399F090E09A
:10013000880F991FFC01E057FF4FA591B491FC0176
:10014000EA57FF4F859194918FB7F894EC91E22B89
:10015000EC938FBF0895AF92BF92CF92DF92EF9250
:10016000FF920F931F93CF93DF936C017B018B0161
:10017000040F151FEB015E01AE18BF08C017D107B1
:1001800059F06991D601ED91FC910190F081E02D3B
:10019000C6010995892B79F7C501DF91CF911F9190
:1001A0000F91FF90EF90DF90CF90BF90AF900895A8
:1001B000FC01538D448D252F30E0842F90E0821B6D
:1001C000930B541710F0CF96089501970895FC01F2
:1001D000918D828D981761F0A28DAE0FBF2FB11D4A
:1001E0005D968C91928D9F5F9F73928F90E00895A2
:1001F0008FEF9FEF0895FC01918D828D981731F05C
:10020000828DE80FF11D858D90E008958FEF9FEFAF
:100210000895FC01918D228D892F90E0805C9F4F85
:10022000821B91098F73992708958EE891E00E94AF
:10023000090121E0892B09F420E0822F089580E054
:1002400090E0892B29F00E94150181110C94000087
:100250000895FC01A48DA80FB92FB11DA35ABF4F5B
:100260002C91848D90E001968F739927848FA689B5
:10027000B7892C93A089B1898C91837080648C9309
:10028000938D848D981306C00288F389E02D8081B8
:100290008F7D80830895EF92FF920F931F93CF93EA
:1002A000DF93EC0181E0888F9B8D8C8D98131AC0B1
:1002B000E889F989808185FF15C09FB7F894EE8998
:1002C000FF896083E889F9898081837080648083F5
:1002D0009FBF81E090E0DF91CF911F910F91FF9040
:1002E000EF900895F62E0B8D10E00F5F1F4F0F73E8
:1002F0001127E02E8C8D8E110CC00FB607FCFACFA3
:10030000E889F989808185FFF5CFCE010E94290116
:10031000F1CFEB8DEC0FFD2FF11DE35AFF4FF08273
:100320009FB7F8940B8FEA89FB8980818062CFCFD9
:10033000CF93DF93EC01888D8823B9F0AA89BB891C
:10034000E889F9898C9185FD03C0808186FD0DC007
:100350000FB607FCF7CF8C9185FFF2CF808185FF28
:10036000EDCFCE010E942901E9CFDF91CF91089511
:10037000833081F028F4813099F08230A9F008951B
:100380008730A9F08830C9F08430B1F480918000C2
:100390008F7D03C0809180008F77809380000895C7
:1003A00084B58F7784BD089584B58F7DFBCF809110
:1003B000B0008F778093B00008958091B0008F7D5A
:1003C000F9CFCF93DF93282F30E0F901EE58FF4F9C
:1003D0008491F901E255FF4FD491F901E656FF4FA0
:1003E000C491CC23A1F081110E94B801EC2FF0E060
:1003F000EE0FFF1FE859FF4FA591B491EC91ED234B
:1004000081E090E009F480E0DF91CF91089580E0F1
:1004100090E0FACF1F93CF93DF93282F30E0F901BC
:10042000EE58FF4F8491F901E255FF4FD491F90145
:10043000E656FF4FC491CC23A9F0162F81110E94DC
:10044000B801EC2FF0E0EE0FFF1FEA57FF4FA59128
:10045000B4918FB7F894EC91111108C0D095DE23B8
:10046000DC938FBFDF91CF911F910895DE2BF8CFE2
:100470003FB7F8948091860190918701A0918801FF
:10048000B091890126B5A89B05C02F3F19F00196B0
:10049000A11DB11D3FBFBA2FA92F982F8827BC01DE
:1004A000CD01620F711D811D911D42E0660F771F06
:1004B000881F991F4A95D1F708958F929F92AF9206
:1004C000BF92CF92DF92EF92FF920E9438024B01CF
:1004D0005C0184E6C82ED12CE12CF12C0E9438025C
:1004E000681979098A099B09683E7340810591055D
:1004F000A8F321E0C21AD108E108F10888EE880EBD
:1005000083E0981EA11CB11CC114D104E104F104C4
:1005100029F7FF90EF90DF90CF90BF90AF909F9022
:100520008F900895CF92DF92EF92FF92CF93DF9357
:10053000EC01603282E07807CCF5653B710514F080
:1005400064EB70E0898128E830E0281B310987FDE1
:100550003395220F331F220F331F6901330FEE082B
:10056000FF088A8128E532E0281B310987FD339591
:10057000220F331F220F331F032E000C440B550B89
:100580002C193D094E095F09DB0177FF02C0B0E07D
:10059000A0E00E94CD0924EB30E040E050E00E9452
:1005A000A309C20ED31EE41EF51EB601E881EC308D
:1005B00070F5298188E890E0821B910927FD9395C9
:1005C000880F991F880F991F681779077CF02A8177
:1005D00088E592E0821B910927FD9395880F991F6A
:1005E000880F991F681779070CF4CB010297880FC1
:1005F000991F4FB7F8942E2F30E0F901EE0FFF1F2F
:10060000E20FF31FE55DFD4F928381834FBFDF91C2
:10061000CF91FF90EF90DF90CF9008951F93CF93ED
:10062000DF93EC01162F88818C3008F04DC0862FA7
:100630000E948C008881282F30E0F901EE0FFF1F07
:10064000E20FF31FE55DFD4F1F736081607C612B3E
:10065000608319821A822CE0622F0E94060A829F10
:10066000B001112430E020E0AB01420F531FFA012A
:10067000EE0FFF1FE40FF51FE55DFD4F908196FD26
:1006800016C02F5F3F4F2C30310571F781110FC01D
:100690001092800082E08093810010928500109279
:1006A0008400B19A80916F00826080936F00E8812E
:1006B0008E2F90E0FC01EE0FFF1FE80FF91FE55DA4
:1006C000FD4F8081806480838881DF91CF911F916D
:1006D0000895089590E080E008950F931F93CF93BD
:1006E000DF9300D01F92CDB7DEB769837A838B8307
:1006F00084EB90E090937F0180937E0100917E01D6
:1007000010917F0117FD0CC0B801CE0101960E9427
:1007100092020150110910937F0100937E01EECFE8
:100720000F900F900F90DF91CF911F910F9108952F
:100730000F931F93CF93DF9300D01F92CDB7DEB7F7
:1007400069837A838B8310927F0110927E010091DE
:100750007E0110917F01053B110564F4B801CE01C3
:1007600001960E9492020F5F1F4F10937F0100932A
:100770007E01EDCF0F900F900F90DF91CF911F91E1
:100780000F91089561E084E00C940A02CF93DF9307
:10079000EC0160E08E810E940A0261E08E810E947D
:1007A0000A0260E08E810E940A028BE891E00197C4
:1007B000F1F7DF91CF910895CF92DF92EF92FF9200
:1007C0000F931F93CF93DF936C017C0187E0E80EBA
:1007D000F11CD0E0C0E0062F10E0B8010C2E02C0E2
:1007E000759567950A94E2F76170F70181917F0131
:1007F0000E940A022196C430D10579F7C601DF9123
:10080000CF911F910F91FF90EF90DF90CF900C94BC
:10081000C603CF92DF92EF92FF920F931F93CF9375
:10082000DF93EC01F62E642F8C810E940A028D81E9
:100830008F3F19F060E00E940A020F2D10E08F85B3
:1008400084FF25C06E0187E0C80ED11CF12CE12C7D
:10085000B8010E2C02C0759567950A94E2F7617095
:10086000F60181916F010E940A02FFEFEF1AFF0A61
:1008700088E0E816F10461F7CE01DF91CF911F9176
:100880000F91FF90EF90DF90CF900C94C603B801CA
:1008900084E0759567958A95E1F7CE010E94DC03A7
:1008A0006F2DCE01DF91CF911F910F91FF90EF90AF
:1008B000DF90CF900C94DC0340E0682F80E592E05D
:1008C0000C94090481E00E945C048BE39FE1019792
:1008D000F1F70895CF93DF93823029F490915F026E
:1008E000986090935F02809363021092640280E4A8
:1008F0008093650280E18093660280E580936702C1
:10090000809154020E948C00809155028F3F11F01B
:100910000E948C00809156020E948C00C0E5D2E0BB
:100920009E012055324080915F0284FD0AC084E020
:1009300090E02196281739073CF48E810E948C00A4
:10094000EFCF88E090E0F5CF8BE39DE00197F1F7E2
:1009500060E0809154020E940A0260E08091560299
:100960000E940A02809155028F3F19F060E00E94B8
:100970000A0280915F0284FD34C063E080E592E06A
:100980000E94DC03CBE4D6E4CE010197F1F763E0EB
:1009900080E592E00E94DC032197F1F763E080E5B7
:1009A00092E00E94DC0383E592E00197F1F762E0B8
:1009B00080E592E00E94DC0380915F0280620E94E9
:1009C0005C0484E0809360028CE00E945C040E94DE
:1009D000620482E08093610286E0DF91CF910C9403
:1009E0005C0480620E945C048BE496E40197F1F75A
:1009F00080915F0280620E945C0483E592E001972F
:100A0000F1F780915F0280620E945C04D5CF9091E3
:100A10006302891710F08FEF890FE82FF0E0E05B99
:100A2000FD4F848980680C945C0441E00E940904B5
:100A300081E090E00895FB0101900020E9F73197F3
:100A4000AF01461B570BDC01ED91FC910280F38155
:100A5000E02D09948F929F92AF92BF92CF92DF9236
:100A6000EF92FF920F931F93CF93DF93CDB7DEB733
:100A7000A1970FB6F894DEBF0FBECDBF6C01990FE2
:100A8000EE08FF08F7FE4BC06DE28EE891E00E9491
:100A90004B018C0122273327A9012C193D094E094E
:100AA0005F0919A2CE0181967C019AE0892E912CD2
:100AB000A12CB12CCA01B901A50194010E94D5094C
:100AC000605DF70162937F012115310541055105F4
:100AD00089F790E080E0309729F0BF018EE891E03F
:100AE0000E941B05080F191F6EE171E08EE891E06E
:100AF0000E941B05800F911FA1960FB6F894DEBFD0
:100B00000FBECDBFDF91CF911F910F91FF90EF905E
:100B1000DF90CF90BF90AF909F908F900895A701E6
:100B2000960119A28E010F5D1F4F8AE0C82ED12CAD
:100B3000E12CF12CCA01B901A70196010E94D50947
:100B4000605DF80162938F01211531054105510562
:100B500089F7309739F0BF018EE891E00E941B05BC
:100B60008C01C2CF10E000E0BFCF1F920F920FB6F2
:100B70000F9211242F933F934F935F936F937F9323
:100B80008F939F93AF93BF93EF93FF938EE891E082
:100B90000E942901FF91EF91BF91AF919F918F9199
:100BA0007F916F915F914F913F912F910F900FBE69
:100BB0000F901F9018951F920F920FB60F9211244D
:100BC0002F938F939F93EF93FF93E0919E01F0916A
:100BD0009F018081E091A401F091A50182FD1BC0DD
:100BE00090818091A7018F5F8F732091A801821758
:100BF00041F0E091A701F0E0E257FE4F958F80931E
:100C0000A701FF91EF919F918F912F910F900FBEB0
:100C10000F901F9018958081F4CF1F920F920FB6FE
:100C20000F9211242F933F938F939F93AF93BF9372
:100C30008091820190918301A0918401B0918501FE
:100C40003091810123E0230F2D3758F50196A11D26
:100C5000B11D209381018093820190938301A09321
:100C60008401B09385018091860190918701A091C4
:100C70008801B09189010196A11DB11D8093860163
:100C800090938701A0938801B0938901BF91AF91A0
:100C90009F918F913F912F910F900FBE0F901F90BA
:100CA000189526E8230F0296A11DB11DD2CF1F92E1
:100CB0000F920FB60F9211242F933F934F935F9390
:100CC0006F937F938F939F93AF93BF93CF93DF9354
:100CD000EF93FF9380918001C0914F02D0E087FF96
:100CE00024C01092850010928400809180018F5F53
:100CF0008093800180918001082E000C990B8C1745
:100D00009D0724F4809180018C30C4F1809184008F
:100D100090918500049680349C4908F47AC08091B3
:100D2000840090918500049676C080918001082E01
:100D3000000C990B8C179D07C4F6E09180018E2F53
:100D4000EE0F990BFC01EE0FFF1FE80FF91FE55D99
:100D5000FD4F808186FFC9CFE09180018E2FEE0F7D
:100D6000990BFC01EE0FFF1FE80FF91FE55DFD4F2A
:100D7000808160E08F730E940A02B7CF20918400C7
:100D800030918500E09180018E2FEE0F990BFC01D0
:100D9000EE0FFF1FE80FF91FE55DFD4F8181928186
:100DA000820F931F9093890080938800E0918001C7
:100DB0008E2FEE0F990BFC01EE0FFF1FE80FF91FAE
:100DC000E55DFD4F808186FF11C0E09180018E2F8F
:100DD000EE0F990BFC01EE0FFF1FE80FF91FE55D09
:100DE000FD4F808161E08F730E940A02FF91EF91B5
:100DF000DF91CF91BF91AF919F918F917F916F9133
:100E00005F914F913F912F910F900FBE0F901F90C8
:100E1000189580E49CE990938900809388008FEF77
:100E200080938001E3CF109291011092900188EE9F
:100E300093E0A0E0B0E08093920190939301A0939F
:100E40009401B093950184E091E090938F01809399
:100E50008E0185EC90E090939B0180939A0184EC45
:100E600090E090939D0180939C0180EC90E09093A2
:100E70009F0180939E0181EC90E09093A10180936B
:100E8000A00182EC90E09093A3018093A20186ECF4
:100E900090E09093A5018093A4011092A701109275
:100EA000A8011092A9011092AA0180914F028C30E2
:100EB00008F055C091E0980F90934F0280936B0219
:100EC00090E0FC01EE0FFF1FE80FF91FE55DFD4FFD
:100ED00088EB9BE09283818380914F028C3008F0F5
:100EE00042C091E0980F90934F028093680290E087
:100EF000FC01EE0FFF1FE80FF91FE55DFD4F88EBCA
:100F00009BE092838183109253021092520286E1F9
:100F100091E0909351028093500288E080935402B4
:100F20008FEF8093550289E0809356028AE0809388
:100F300057028BE0809358028CE0809359028DE039
:100F400080935A0210925B0210925C0210925D0232
:100F500010925E0210925F0281E00C946A048FEF9F
:100F600080936B02B9CF8FEF80936802CCCF7894D7
:100F700084B5826084BD84B5816084BD85B582609E
:100F800085BD85B5816085BD80916E00816080934F
:100F90006E001092810080918100826080938100B8
:100FA00080918100816080938100809180008160C8
:100FB000809380008091B10084608093B100809123
:100FC000B00081608093B00080917A00846080934B
:100FD0007A0080917A00826080937A0080917A0012
:100FE000816080937A0080917A00806880937A0093
:100FF0001092C100E0919E01F0919F0182E08083F8
:10100000E0919A01F0919B011082E0919C01F09196
:101010009D018FEC80831092A601E091A201F091D6
:10102000A30186E08083E091A001F091A10180817D
:1010300080618083E091A001F091A10180818860AE
:101040008083E091A001F091A1018081806880837C
:10105000E091A001F091A10180818F7D808363E008
:1010600070E088E692E00E940E0362E070E08BE69A
:1010700092E00E940E0382E10E948C00E4E8F0E01E
:10108000E491E33009F4AAC050F4E130E1F0E23039
:1010900009F49EC060E082E10E940A0219C0E730B4
:1010A00009F4A8C0E83009F4AEC0E43099F78091A3
:1010B000800080628093800082E390E090938B00B8
:1010C00080938A0005C084B5806884BD82E387BDB3
:1010D00082E00E946A0485E00E948C0086E00E9403
:1010E0008C0084E00E948C00C0E0D0E08EE00E9482
:1010F000E10190938D0180938C018FE00E94E101CA
:1011000090938B0180938A0161E271E08EE891E017
:101110000E941B056EE171E08EE891E00E941B05C4
:1011200080918C0190918D010E942A056DE271E001
:101130008EE891E00E941B056EE171E08EE891E07F
:101140000E941B0580918A0190918B010E942A05C3
:1011500020918C0130918D0180918A0190918B01B9
:101160002130310509F093C0019709F055C060E0C6
:1011700086E00E940A0260E085E00E940A020E9466
:10118000C20380E00E9407056BE371E080E592E016
:101190000E941B0581E00E9407056DE471E080E577
:1011A00092E00E941B050E945D020E946204609111
:1011B0006B0270916C0280916D020E9498036091A5
:1011C00068027091690280916A020E946D0354C0A6
:1011D00084B5806284BD82E388BD7ACF809180002F
:1011E00080688093800082E390E0909389008093F0
:1011F00088006ECF8091B00080688093B00082E359
:101200008093B30065CF8091B00080628093B0007E
:1012100082E38093B4005CCF61E086E00E940A0222
:1012200060E085E00E940A020E94C20380E00E9402
:1012300007056BE371E080E592E00E941B0581E009
:101240000E9407056BE371E080E592E00E941B05B8
:101250000E945D020E9462046091680270916902BE
:1012600080916A020E94980360916B0270916C02F7
:1012700080916D020E949803209709F437CF0E9455
:101280001501882309F432CF0E9400002FCF019767
:1012900049F561E086E00E940A0260E085E00E9474
:1012A0000A020E94C20380E00E9407056DE571E01A
:1012B00080E592E00E941B0581E00E9407056DE534
:1012C00071E080E592E00E941B050E945D020E9491
:1012D0006204609168027091690280916A020E94C2
:1012E0006D03C2CF60E084E00E940A0280E00E94A9
:1012F000070569E671E080E592E00E941B0581E048
:101300000E94070569E671E080E592E00E941B05F6
:101310000E945D020E94620460E086E00E940A0270
:1013200061E085E00E940A026091680270916902A2
:1013300080916A020E94980360916B0270916C0226
:1013400080916D0242CF052E97FB1EF400940E94FF
:10135000BA0957FD07D00E94D50907FC03D04EF407
:101360000C94BA0950954095309521953F4F4F4FB9
:101370005F4F089590958095709561957F4F8F4F41
:101380009F4F08950E94F709A59F900DB49F900D5F
:10139000A49F800D911D11240895B7FF0C94C209DC
:1013A0000E94C209821B930B0895A1E21A2EAA1B68
:1013B000BB1BFD010DC0AA1FBB1FEE1FFF1FA21705
:1013C000B307E407F50720F0A21BB30BE40BF50B02
:1013D000661F771F881F991F1A9469F7609570958B
:1013E000809590959B01AC01BD01CF010895A29F0E
:1013F000B001B39FC001A39F700D811D1124911DE9
:10140000B29F700D811D1124911D0895991B79E0E3
:1014100004C0991F961708F0961B881F7A95C9F784
:1014200080950895EE0FFF1F0590F491E02D09942B
:10143000F894FFCF000000004B01AB00D8009801EA
:101440000901E700FB00000000001505AB006A037E
:1014500069030D0A0056616C6F725F4761733A2031
:101460000053454E534F52466C616D653A2000C2A1
:10147000A1C2A1465547412044452047415321215F
:1014800000C2A1C2A1434F4E20465545474F2121DE
:1014900000C2A1C2A1465545474F212100C2A1C2A9
:1014A000A1544F444F20434F52524543544F2121A2
:0214B00000003A
:107E0000112484B714BE81FFF0D085E080938100F7
:107E100082E08093C00088E18093C10086E0809377
:107E2000C20080E18093C4008EE0C9D0259A86E02C
:107E300020E33CEF91E0309385002093840096BBD3
:107E4000B09BFECF1D9AA8958150A9F7CC24DD24C4
:107E500088248394B5E0AB2EA1E19A2EF3E0BF2EE7
:107E6000A2D0813461F49FD0082FAFD0023811F036
:107E7000013811F484E001C083E08DD089C08234E0
:107E800011F484E103C0853419F485E0A6D080C0E4
:107E9000853579F488D0E82EFF2485D0082F10E0AE
:107EA000102F00270E291F29000F111F8ED06801E7
:107EB0006FC0863521F484E090D080E0DECF843638
:107EC00009F040C070D06FD0082F6DD080E0C81688
:107ED00080E7D80618F4F601B7BEE895C0E0D1E017
:107EE00062D089930C17E1F7F0E0CF16F0E7DF06D8
:107EF00018F0F601B7BEE89568D007B600FCFDCFD4
:107F0000A601A0E0B1E02C9130E011968C91119780
:107F100090E0982F8827822B932B1296FA010C0160
:107F200087BEE89511244E5F5F4FF1E0A038BF0790
:107F300051F7F601A7BEE89507B600FCFDCF97BE46
:107F4000E89526C08437B1F42ED02DD0F82E2BD052
:107F50003CD0F601EF2C8F010F5F1F4F84911BD097
:107F6000EA94F801C1F70894C11CD11CFA94CF0C13
:107F7000D11C0EC0853739F428D08EE10CD085E9AC
:107F80000AD08FE07ACF813511F488E018D01DD067
:107F900080E101D065CF982F8091C00085FFFCCF94
:107FA0009093C60008958091C00087FFFCCF809118
:107FB000C00084FD01C0A8958091C6000895E0E648
:107FC000F0E098E1908380830895EDDF803219F02E
:107FD00088E0F5DFFFCF84E1DECF1F93182FE3DFCA
:107FE0001150E9F7F2DF1F91089580E0E8DFEE27F6
:047FF000FF270994CA
:027FFE00040479
:00000001FF
